{
  "contractName": "OnlineQuiz",
  "abi": [
    {
      "inputs": [
        {
          "name": "_Q1",
          "type": "string"
        },
        {
          "name": "_A1",
          "type": "string"
        },
        {
          "name": "_Q2",
          "type": "string"
        },
        {
          "name": "_A2",
          "type": "string"
        },
        {
          "name": "_Q3",
          "type": "string"
        },
        {
          "name": "_A3",
          "type": "string"
        },
        {
          "name": "_Q4",
          "type": "string"
        },
        {
          "name": "_A4",
          "type": "string"
        },
        {
          "name": "_pFee",
          "type": "uint256"
        },
        {
          "name": "_n",
          "type": "uint256"
        }
      ],
      "payable": false,
      "stateMutability": "nonpayable",
      "type": "constructor"
    },
    {
      "constant": true,
      "inputs": [],
      "name": "Questions_Display",
      "outputs": [
        {
          "name": "",
          "type": "string"
        },
        {
          "name": "",
          "type": "string"
        },
        {
          "name": "",
          "type": "string"
        },
        {
          "name": "",
          "type": "string"
        }
      ],
      "payable": false,
      "stateMutability": "view",
      "type": "function"
    },
    {
      "constant": false,
      "inputs": [
        {
          "name": "_A1",
          "type": "string"
        },
        {
          "name": "_A2",
          "type": "string"
        },
        {
          "name": "_A3",
          "type": "string"
        },
        {
          "name": "_A4",
          "type": "string"
        }
      ],
      "name": "registerParticipants",
      "outputs": [
        {
          "name": "",
          "type": "string"
        },
        {
          "name": "",
          "type": "uint256"
        }
      ],
      "payable": true,
      "stateMutability": "payable",
      "type": "function"
    },
    {
      "constant": true,
      "inputs": [],
      "name": "getParticipantsLength",
      "outputs": [
        {
          "name": "",
          "type": "uint256"
        }
      ],
      "payable": false,
      "stateMutability": "view",
      "type": "function"
    },
    {
      "constant": false,
      "inputs": [],
      "name": "TransferAmount",
      "outputs": [
        {
          "name": "",
          "type": "uint256"
        }
      ],
      "payable": false,
      "stateMutability": "nonpayable",
      "type": "function"
    }
  ],
  "bytecode": "0x60806040523480156200001157600080fd5b506040516200181b3803806200181b833981018060405281019080805182019291906020018051820192919060200180518201929190602001805182019291906020018051820192919060200180518201929190602001805182019291906020018051820192919060200180519060200190929190805190602001909291905050508960059080519060200190620000ab929190620001e4565b508760069080519060200190620000c4929190620001e4565b508560079080519060200190620000dd929190620001e4565b508360089080519060200190620000f6929190620001e4565b5088600990805190602001906200010f929190620001e4565b5086600a908051906020019062000128929190620001e4565b5084600b908051906020019062000141929190620001e4565b5082600c90805190602001906200015a929190620001e4565b50816002819055508060008190555033600d60006101000a81548173ffffffffffffffffffffffffffffffffffffffff021916908373ffffffffffffffffffffffffffffffffffffffff160217905550600460025460005402811515620001bd57fe5b04600381905550600060018190555060006004819055505050505050505050505062000293565b828054600181600116156101000203166002900490600052602060002090601f016020900481019282601f106200022757805160ff191683800117855562000258565b8280016001018555821562000258579182015b82811115620002575782518255916020019190600101906200023a565b5b5090506200026791906200026b565b5090565b6200029091905b808211156200028c57600081600090555060010162000272565b5090565b90565b61157880620002a36000396000f300608060405260043610610062576000357c0100000000000000000000000000000000000000000000000000000000900463ffffffff16806323f966b11461006757806339812e5d1461021557806376ab5af614610240578063d8ef1d5e1461026b575b600080fd5b610193600480360381019080803590602001908201803590602001908080601f0160208091040260200160405190810160405280939291908181526020018383808284378201915050505050509192919290803590602001908201803590602001908080601f0160208091040260200160405190810160405280939291908181526020018383808284378201915050505050509192919290803590602001908201803590602001908080601f0160208091040260200160405190810160405280939291908181526020018383808284378201915050505050509192919290803590602001908201803590602001908080601f016020809104026020016040519081016040528093929190818152602001838380828437820191505050505050919291929050505061043f565b6040518080602001838152602001828103825284818151815260200191508051906020019080838360005b838110156101d95780820151818401526020810190506101be565b50505050905090810190601f1680156102065780820380516001836020036101000a031916815260200191505b50935050505060405180910390f35b34801561022157600080fd5b5061022a6107fa565b6040518082815260200191505060405180910390f35b34801561024c57600080fd5b50610255610a7c565b6040518082815260200191505060405180910390f35b34801561027757600080fd5b50610280610a89565b6040518080602001806020018060200180602001858103855289818151815260200191508051906020019080838360005b838110156102cc5780820151818401526020810190506102b1565b50505050905090810190601f1680156102f95780820380516001836020036101000a031916815260200191505b50858103845288818151815260200191508051906020019080838360005b83811015610332578082015181840152602081019050610317565b50505050905090810190601f16801561035f5780820380516001836020036101000a031916815260200191505b50858103835287818151815260200191508051906020019080838360005b8381101561039857808201518184015260208101905061037d565b50505050905090810190601f1680156103c55780820380516001836020036101000a031916815260200191505b50858103825286818151815260200191508051906020019080838360005b838110156103fe5780820151818401526020810190506103e3565b50505050905090810190601f16801561042b5780820380516001836020036101000a031916815260200191505b509850505050505050505060405180910390f35b6060600080600d60009054906101000a900473ffffffffffffffffffffffffffffffffffffffff1673ffffffffffffffffffffffffffffffffffffffff163373ffffffffffffffffffffffffffffffffffffffff1614151515610530576040517f08c379a00000000000000000000000000000000000000000000000000000000081526004018080602001828103825260258152602001807f436f6e74726163746f722063616e6e6f74206265636f6d65206120706172746981526020017f6369616e7400000000000000000000000000000000000000000000000000000081525060400191505060405180910390fd5b600054600454111515156105d2576040517f08c379a000000000000000000000000000000000000000000000000000000000815260040180806020018281038252602c8152602001807f536f7272792c204e6f206f74686572205061727469636970616e74732063616e81526020017f207061727469636970617465000000000000000000000000000000000000000081525060400191505060405180910390fd5b60008060009150600090505b600e8054905081101561066e57600e818154811015156105fa57fe5b9060005260206000200160009054906101000a900473ffffffffffffffffffffffffffffffffffffffff1673ffffffffffffffffffffffffffffffffffffffff163373ffffffffffffffffffffffffffffffffffffffff161415610661576001915061066e565b80806001019150506105de565b600015158215151415156106ea576040517f08c379a000000000000000000000000000000000000000000000000000000000815260040180806020018281038252601e8152602001807f5061727469636970616e7420416c72656164792052656769737465726564000081525060200191505060405180910390fd5b346002548114151561078a576040517f08c379a00000000000000000000000000000000000000000000000000000000081526004018080602001828103825260358152602001807f416e7920466565206f74686572207468616e2070617274696369706174696f6e81526020017f466565206973206e6f742061636365707461626c65000000000000000000000081525060400191505060405180910390fd5b600254600154016001819055506107a38a8a8a8a610d15565b9350600160045401600481905550836040805190810160405280601f81526020017f546f74616c206e756d626572206f6620636f727265637420616e73776572730081525090955095505050505094509492505050565b6000806000809150600d60009054906101000a900473ffffffffffffffffffffffffffffffffffffffff1673ffffffffffffffffffffffffffffffffffffffff163373ffffffffffffffffffffffffffffffffffffffff1614156108b35760035491503373ffffffffffffffffffffffffffffffffffffffff166108fc6003549081150290604051600060405180830381858888f193505050501580156108a5573d6000803e3d6000fd5b506000600381905550610a74565b600090505b601160003373ffffffffffffffffffffffffffffffffffffffff1673ffffffffffffffffffffffffffffffffffffffff1681526020019081526020016000208054905081101561099c5760106000601160003373ffffffffffffffffffffffffffffffffffffffff1673ffffffffffffffffffffffffffffffffffffffff1681526020019081526020016000208381548110151561095257fe5b9060005260206000200154815260200190815260200160002080549050601060015460030281151561098057fe5b0481151561098a57fe5b048201915080806001019150506108b8565b601160003373ffffffffffffffffffffffffffffffffffffffff1673ffffffffffffffffffffffffffffffffffffffff16815260200190815260200160002060006109e79190611506565b3373ffffffffffffffffffffffffffffffffffffffff166108fc839081150290604051600060405180830381858888f19350505050158015610a2d573d6000803e3d6000fd5b506000600f60003373ffffffffffffffffffffffffffffffffffffffff1673ffffffffffffffffffffffffffffffffffffffff168152602001908152602001600020819055505b819250505090565b6000600e80549050905090565b6060806060806005600660076008838054600181600116156101000203166002900480601f016020809104026020016040519081016040528092919081815260200182805460018160011615610100020316600290048015610b2c5780601f10610b0157610100808354040283529160200191610b2c565b820191906000526020600020905b815481529060010190602001808311610b0f57829003601f168201915b50505050509350828054600181600116156101000203166002900480601f016020809104026020016040519081016040528092919081815260200182805460018160011615610100020316600290048015610bc85780601f10610b9d57610100808354040283529160200191610bc8565b820191906000526020600020905b815481529060010190602001808311610bab57829003601f168201915b50505050509250818054600181600116156101000203166002900480601f016020809104026020016040519081016040528092919081815260200182805460018160011615610100020316600290048015610c645780601f10610c3957610100808354040283529160200191610c64565b820191906000526020600020905b815481529060010190602001808311610c4757829003601f168201915b50505050509150808054600181600116156101000203166002900480601f016020809104026020016040519081016040528092919081815260200182805460018160011615610100020316600290048015610d005780601f10610cd557610100808354040283529160200191610d00565b820191906000526020600020905b815481529060010190602001808311610ce357829003601f168201915b50505050509050935093509350935090919293565b60008060009050610dc08660098054600181600116156101000203166002900480601f016020809104026020016040519081016040528092919081815260200182805460018160011615610100020316600290048015610db65780601f10610d8b57610100808354040283529160200191610db6565b820191906000526020600020905b815481529060010190602001808311610d9957829003601f168201915b5050505050611422565b15610eb05760106000600181526020019081526020016000203390806001815401808255809150509060018203906000526020600020016000909192909190916101000a81548173ffffffffffffffffffffffffffffffffffffffff021916908373ffffffffffffffffffffffffffffffffffffffff16021790555050601160003373ffffffffffffffffffffffffffffffffffffffff1673ffffffffffffffffffffffffffffffffffffffff1681526020019081526020016000206001908060018154018082558091505090600182039060005260206000200160009091929091909150555080806001019150505b610f5485600a8054600181600116156101000203166002900480601f016020809104026020016040519081016040528092919081815260200182805460018160011615610100020316600290048015610f4a5780601f10610f1f57610100808354040283529160200191610f4a565b820191906000526020600020905b815481529060010190602001808311610f2d57829003601f168201915b5050505050611422565b156110445760106000600281526020019081526020016000203390806001815401808255809150509060018203906000526020600020016000909192909190916101000a81548173ffffffffffffffffffffffffffffffffffffffff021916908373ffffffffffffffffffffffffffffffffffffffff16021790555050601160003373ffffffffffffffffffffffffffffffffffffffff1673ffffffffffffffffffffffffffffffffffffffff1681526020019081526020016000206002908060018154018082558091505090600182039060005260206000200160009091929091909150555080806001019150505b6110e884600b8054600181600116156101000203166002900480601f0160208091040260200160405190810160405280929190818152602001828054600181600116156101000203166002900480156110de5780601f106110b3576101008083540402835291602001916110de565b820191906000526020600020905b8154815290600101906020018083116110c157829003601f168201915b5050505050611422565b156111d85760106000600381526020019081526020016000203390806001815401808255809150509060018203906000526020600020016000909192909190916101000a81548173ffffffffffffffffffffffffffffffffffffffff021916908373ffffffffffffffffffffffffffffffffffffffff16021790555050601160003373ffffffffffffffffffffffffffffffffffffffff1673ffffffffffffffffffffffffffffffffffffffff1681526020019081526020016000206003908060018154018082558091505090600182039060005260206000200160009091929091909150555080806001019150505b61127c83600c8054600181600116156101000203166002900480601f0160208091040260200160405190810160405280929190818152602001828054600181600116156101000203166002900480156112725780601f1061124757610100808354040283529160200191611272565b820191906000526020600020905b81548152906001019060200180831161125557829003601f168201915b5050505050611422565b1561136c5760106000600181526020019081526020016000203390806001815401808255809150509060018203906000526020600020016000909192909190916101000a81548173ffffffffffffffffffffffffffffffffffffffff021916908373ffffffffffffffffffffffffffffffffffffffff16021790555050601160003373ffffffffffffffffffffffffffffffffffffffff1673ffffffffffffffffffffffffffffffffffffffff1681526020019081526020016000206004908060018154018082558091505090600182039060005260206000200160009091929091909150555080806001019150505b80600f60003373ffffffffffffffffffffffffffffffffffffffff1673ffffffffffffffffffffffffffffffffffffffff16815260200190815260200160002081905550600e3390806001815401808255809150509060018203906000526020600020016000909192909190916101000a81548173ffffffffffffffffffffffffffffffffffffffff021916908373ffffffffffffffffffffffffffffffffffffffff1602179055505080915050949350505050565b6000606080849150839050806040518082805190602001908083835b602083101515611463578051825260208201915060208101905060208303925061143e565b6001836020036101000a038019825116818451168082178552505050505050905001915050604051809103902060001916826040518082805190602001908083835b6020831015156114ca57805182526020820191506020810190506020830392506114a5565b6001836020036101000a038019825116818451168082178552505050505050905001915050604051809103902060001916149250505092915050565b50805460008255906000526020600020908101906115249190611527565b50565b61154991905b8082111561154557600081600090555060010161152d565b5090565b905600a165627a7a7230582086778e2cb0075e68f2e20c1dca964294af1d0ff7d72f6187b8b135e6a43997e80029",
  "source": "pragma solidity ^0.4.24;\n    \n    contract OnlineQuiz {\n        \n        uint n;            \n        uint tFee;\n        uint pFee;\n        uint contractFee;\n        uint total;\n        \n        string Q1;   \n        string Q2;\n        string Q3;\n        string Q4;\n        \n        string A1;     \n        string A2;\n        string A3;\n        string A4;\n        \n        \n        address private Contractor;\n        \n        address[] private participants;\n        \n        mapping(address => uint) ParticipantCorrectAnsCount;\n        mapping(uint => address[]) CorrectAnswerParticipants;\n        mapping(address =>uint[]) ParticipantCorrectAnswers;\n        modifier notContractor(){\n            require(msg.sender!=Contractor,\"Contractor cannot become a particiant\");\n        _;}\n        \n        modifier CheckIFAlreadyRegister(){\n            bool flag = false;\n            for(uint i=0;i<participants.length; i++)\n            {\n                if(msg.sender == participants[i])\n                {\n                    flag = true;\n                    break;\n                }\n            }\n            require(flag == false,\"Participant Already Registered\");\n\n        _;}\n        \n        modifier participantscount(){\n            require(total<=n,\"Sorry, No other Participants can participate\");\n        _;}\n        \n        modifier OnlyContractor(){\n            require(msg.sender==Contractor,\"Only Contractor can calculate total amount to be paid!\");\n        _;}\n        \n        modifier CheckPayFeeEqual(uint _pFee){\n            require(_pFee==pFee,\"Any Fee other than participationFee is not acceptable\");\n        _;}\n\n        constructor(string _Q1,string _A1,string _Q2,string _A2,string _Q3,string _A3,string _Q4,string _A4,uint _pFee, uint _n)\n        public\n        {\n            Q1 = _Q1;\n            Q2 = _Q2;\n            Q3 = _Q3;\n            Q4 = _Q4;\n\n            A1 = _A1;\n            A2 = _A2;\n            A3 = _A3;\n            A4 = _A4;\n            \n            pFee = _pFee;\n            n = _n;\n            \n            Contractor = msg.sender;\n            contractFee = (n*pFee)/4;\n            \n            tFee = 0;\n            total = 0;\n        }\n        \n        function Questions_Display()\n        public\n        view                                \n        returns(string,string,string,string)\n        {\n            return(Q1,Q2,Q3,Q4);\n        }\n        \n        \n        function registerParticipants(string _A1,string _A2,string _A3,string _A4)\n        public\n        payable\n        notContractor()\n        participantscount()\n        CheckIFAlreadyRegister()\n        CheckPayFeeEqual(msg.value)\n        returns (string,uint)\n        {\n            tFee = tFee + pFee;\n            uint a=calculateCorrectAnswer(_A1,_A2,_A3,_A4);\n            total=total+1;\n            return(\"Total number of correct answers\",a);\n        }\n        \n        function getParticipantsLength()\n        public\n        view\n        returns(uint)\n        {\n            return(participants.length);\n        }\n        function calculateCorrectAnswer(string _A1,string _A2,string _A3,string _A4)\n        private\n        returns (uint)\n        {\n            uint count=0;\n            if(checkEqual(_A1,A1)){\n                CorrectAnswerParticipants[1].push(msg.sender);\n                ParticipantCorrectAnswers[msg.sender].push(1);\n                count++;\n            }\n            if(checkEqual(_A2,A2)){\n                CorrectAnswerParticipants[2].push(msg.sender);\n                ParticipantCorrectAnswers[msg.sender].push(2);\n                count++;\n            }\n            if(checkEqual(_A3,A3)){\n                CorrectAnswerParticipants[3].push(msg.sender);\n                ParticipantCorrectAnswers[msg.sender].push(3);\n                count++;\n            }\n            if(checkEqual(_A4,A4)){\n                CorrectAnswerParticipants[1].push(msg.sender);\n                ParticipantCorrectAnswers[msg.sender].push(4);\n                count++;\n            }\n            \n            ParticipantCorrectAnsCount[msg.sender]=count;  \n            participants.push(msg.sender) ;\n            \n            return (count);\n        }\n        function checkEqual (string _a, string _b)\n        private\n        pure \n        returns (bool)\n        {\n            bytes memory a = bytes(_a);\n            bytes memory b = bytes(_b);\n            return keccak256(a) == keccak256(b);\n        }\n        \n        function TransferAmount()\n        public\n        returns (uint)\n        {\n            uint val=0;\n            if(msg.sender == Contractor){\n                val=contractFee;\n                msg.sender.transfer(contractFee);\n                contractFee = 0;\n                \n            }\n            else\n            {\n\n                for(uint p=0;p<ParticipantCorrectAnswers[msg.sender].length;p++){\n                    val=val+(3*tFee/16)/(CorrectAnswerParticipants[ParticipantCorrectAnswers[msg.sender][p]].length);\n                }\n                delete ParticipantCorrectAnswers[msg.sender];\n                msg.sender.transfer(val);\n                ParticipantCorrectAnsCount[msg.sender] = 0;\n            }\n            return(val);\n        }\n    }\n",
  "sourcePath": "/home/shipta/OnlineQuiz/contracts/OnlineQuiz.sol",
  "compiler": {
    "name": "solc",
    "version": "0.4.24+commit.e67f0147.Emscripten.clang"
  },
  "schemaVersion": "2.0.1",
  "updatedAt": "2018-11-01T19:58:03.202Z"
}